:020000040800F2
:1000000000040020C101000851190008511900081E
:100010005119000851190008511900085119000818
:10002000511900085119000851190008A10E0008C3
:1000300051190008511900085119000851190008F8
:1000400051190008511900085119000851190008E8
:1000500051190008511900085119000851190008D8
:10006000511900085119000851190008A11500087C
:100070006115000821150008E1140008A11400080A
:1000800061140008211400085119000851190008D2
:100090005119000851190008511900085119000898
:1000A0005119000851190008511900085119000888
:1000B00021040008511900085119000851190008BD
:1000C0005119000851190008511900085119000868
:1000D0005119000851190008511900085119000858
:1000E0005119000851190008511900085119000848
:1000F000511900085119000851190008E1130008AE
:100100005119000851190008511900085119000827
:100110005119000851190008511900085119000817
:10012000A11300086113000821130008E112000860
:10013000A1120008511900085119000851190008AE
:1001400051190008511900085119000851190008E7
:1001500061120008E1030008A1030008511900081A
:1001600051190008511900085119000851190008C7
:1001700051190008511900085119000851190008B7
:1001800051190008511900085119000851190008A7
:100190005119000851190008511900085119000897
:1001A0005119000851190008511900085119000887
:1001B0005119000851190008511900085119000877
:1001C00072B6214880F30988022080F31488BFF3B7
:1001D0006F8F01F0D5FB00F0ABF91C481C491D4A9C
:1001E00091423CBF41F8040BFAE71B49164A914281
:1001F0003CBF41F8040BFAE71849194A194B9A42D7
:100200003EBF51F8040B42F8040BF8E700201649F2
:10021000164A91423CBF41F8040BFAE701F0A8FBF3
:10022000134C144DAC4203DA54F8041B8847F9E729
:1002300000F02EFA104C114DAC4203DA54F8041BB6
:100240008847F9E701F08CBB00080020555555554B
:1002500000000020000400200004002010230008FB
:1002600000080020C0080020C00800208C0F0020DB
:10027000C0010008C0010008C0010008C00100085A
:100280002DE9F04FC1F80CD0D0F80CD0BDE8F08FBC
:1002900001F016FA00F0B4FE002383F3118828461B
:1002A000A047002001F064FA00F0BAFE01F018FA4D
:1002B00000F01EFF01F004FA00F0A2FE00DFFEE7EE
:1002C00011F00C0F00D1704772B6024B024ADA628D
:1002D000FEE700BFF80800207020000800000000C2
:1002E00011F00C0F38B54BD1816A0B681A6822F0F7
:1002F0001F021A601A68D407FCD40D7A426A4C684F
:1003000013683D21A9402160196821F01F0119607F
:100310001968C907FCD4436851680446107A1A6802
:100320003D2383400B6042B3042323702046904753
:100330002378042B21D0202383F31188134800F065
:1003400067FE01F065F9A36873B193F82020032AD2
:1003500004D072B60E4B0F4ADA62FEE70022A260AA
:1003600018465A6200F024FF01F03AF9074800F0FD
:100370001FFE002383F3118838BD02232370DAE7C0
:1003800072B6054B054ADA62FEE700BFC00D0020D9
:10039000F808002030200008F8080020702000082D
:1003A00010B500F0D5FD00F043FF094B094859682E
:1003B000826F890D01F03D018C05DC600AB1C06FD0
:1003C000904700F01DFFBDE8104000F091BD00BF58
:1003D00000640240040F0020000000000000000044
:1003E00010B500F0B5FD00F023FF094B094859682E
:1003F000026F090C01F03D010C04DC600AB1406F92
:10040000904700F0FDFEBDE8104000F071BD00BF58
:1004100000640240040F0020000000000000000003
:100420002DE9F8434FF0804600F092FD00F000FF08
:1004300033699B0705D400F0E3FEBDE8F84300F004
:1004400057BD00273761202383F31188314D05F50F
:10045000996000F0DDFD01F0DBF800F099FE00F09E
:1004600097FEEC69726AA96AA368501A984238BF6D
:1004700005F11C0628D3B846374605F11C0622684C
:10048000D4F80C900B44B242AB625660EA61C4F8F7
:100490000C8008BFC7F80C8001F0A2F81E4800F0DD
:1004A00087FD88F311882069C847202383F31188CA
:1004B000194800F0ADFD01F0ABF8EC697A6AA96A61
:1004C000A368501A8342DAD9B44215D00B449B1A60
:1004D000012B98BF02239C18204600F0F9FC4FF036
:1004E0008043A96A5A6A0D48631A521A9A4203D97C
:1004F00072B60B4BC362FEE701F072F8064800F0DB
:1005000057FD002383F3118800F07AFEBDE8F8431D
:1005100000F0EEBCF8080020C00D0020F808002014
:10052000A020000800000000000000000000000003
:100530002C492D4B4FF080504FF4404208641A6014
:100540000B6843F001030B600A68264B9007FBD54C
:100550009A6822F003029A609A689A6019468B683A
:10056000204A13F00C03FAD1116801F0F90111606F
:100570009360136843F4803313601168194B890347
:10058000FBD55A6F42F001025A675A6F154990071E
:10059000FBD5164B4B600B68134A43F080730B601E
:1005A00053685904FCD50F490A680E4B9201FBD5DC
:1005B0000F4A1049996040F2057111609A6842F043
:1005C00002029A601A469368064903F00C03082B4E
:1005D000F9D14B6C43F480434B644B6E43F480433E
:1005E0004B66704700380240007000400C544007D2
:1005F000003C024000948838000000000000000029
:10060000002836D0F0B41D4D437A2A68012101FA42
:1006100003F3134228D0837A194E5C09203403F087
:100620001F0703F1604303F5614301FA07F746F83A
:100630002470002483F80043437A01FA03F322EA8A
:10064000030313F0FF0F2B6004D10E490A6B22F451
:1006500000120A6313F47F4F04D10A4A136B23F488
:1006600080031363F0BC704772B6074B074ADA6227
:10067000FEE772B6044B054ADA62FEE7880F0020F7
:1006800000E100E000380240F808002040200008A7
:10069000C94BCA4C1A694FF0FF3100222DE980483E
:1006A00019611A61586959615A61186A60F080507D
:1006B00018621A62586A59625A62196C41F0805184
:1006C0001964216841F480712160196F01F440714F
:1006D000B1F5007F87B003D04FF4803119671A67F6
:1006E000B648B74C4268B74EB74D002122F40072AD
:1006F00042600B460A462160F058016045F832100E
:100700000132102A03F10C034FF00004F4D1DFF89A
:10071000F4B2AE49DFF8A082AD4EAE48AE4BDFF882
:10072000E8A2DFF8E892DFF8E8C2DFF8E8E2AB4FD2
:100730004FF0FF35CBF80850CBF80C508D60CD60F2
:10074000D8F830B06FEA5B2B6FEA4B2BC8F830B0AB
:10075000D8F850B06FEA5B2B6FEA4B2BC8F850B05B
:10076000DFF8B4B27460B560C6F80CB04FF6FF6B3A
:10077000C6F814B0DFF8A4B2C6F820B0DFF8A0B213
:10078000C6F824B00BF12B4BABF5D20BABF1D80B69
:10079000C6F800B04FF44076DFF888B24660856056
:1007A0004FF6FE76C0F80CB04FF4A00B4661C0F8CF
:1007B00020B0DFF874B28A4E4662C0F800B0ABF1E8
:1007C000CB5BABF56C2B01264FF6FF70ABF2D14B38
:1007D0005C609D60DE605861C3F820B0DFF84CB209
:1007E000C3F824B0DFF848B2C3F800B0DFF844B271
:1007F000CAF80440CAF80850CAF80CB04FF4406B6D
:10080000CAF81400CAF820B04FF0200BCAF82440F0
:10081000CAF800B0DFF820A2C9F80440C9F80850AF
:10082000C9F80CA04FF4885AC9F81400C9F8204040
:10083000C9F82440C9F800A0DFF80092CCF80440C1
:10084000CCF80850CCF80C90DFF8F491CCF81400F8
:10085000A1F58841CCF82040CCF82440CCF80040E9
:10086000CEF80440DFF8DCC1CEF80850CEF80C908A
:10087000DFF8D491CEF81400CEF82040CEF824C092
:10088000CEF80090DFF8C4C17C604FF0553EBD60EB
:10089000C7F80CC078613C627C623C604C608D6043
:1008A000C1F80CE048610C624C620C60D8F84070F2
:1008B0004C4B4D49DFF898911E7037435C600D80BA
:1008C000C8F84070D9F80880DFF888E19C604FF0E4
:1008D000804748EA0608C9F808804449DFF878C12B
:1008E0004348DFF878A142F2CF08C7F828804FF0DC
:1008F00080094FF08058FD62BC617C63FC607C60C5
:100900007E613E608EF81C93CEF88081CEF8008028
:100910008C60D1F80C80DFF84891C3F820A04FF626
:10092000FF0708EA070738430CF1240703F10C0A14
:100930009F62304FC3F824C0C3F82C901F63C3F8E4
:100940000CA0C3F810A05C61DC61C860DEF8FC3C60
:1009500029482A4FDFF80CA143F08073CEF8FC3C05
:1009600003687F60334303604FF00008CA7707F1E4
:100970001C0381F822B04FF0000968463F60FB611C
:100980003B620095019402940394BC603F617F61D7
:100990007D62BC62C7F8A044CDE9048900F038FB51
:1009A000684600F005FB029A154BC7F8A02407F52E
:1009B000986B07F59B6257E00038024000700040DA
:1009C000880F0020D0200008040F0020006402409F
:1009D000000002400004024000080240001C0240E7
:1009E00044050CCCD00E0020C408002000ED00E02F
:1009F0000003FA0546000106001000E0F808002098
:100A0000D008002000600240000C024000100240AC
:100A1000001402400018024000010820B00B50B53D
:100A200000AA0A0000404008811A2AA2CCCC0C007F
:100A3000A8AAAA064555555545405555555515552D
:100A40005545040000B0B00B000091695055555554
:100A5000002004E000E100E0302100080030014007
:100A600016000106C008002040484149DFF80CC1CB
:100A7000DFF80CE1C3F800E0CBE90089C2E90089A6
:100A800007F1400B022220F0070021F00701C7F810
:100A90003CB087F8602403F1100B4022CAF8000034
:100AA000CCF800109C60DC609C611C62C3F810B044
:100AB000C3F814B0BA63C7F84824C7F88024C7F84D
:100AC000A844C7F8AC44C7F8B054C7F8B444C7F852
:100AD000B844C7F8BC44C7F8C854C7F8CC44C7F8F2
:100AE000D044C7F8D44487F86144C7F87C44C7F8B9
:100AF000784487F86264C7F85844C7F850747B6933
:100B0000C7F8543407F5886AC3F810A007F5936254
:100B100007F26C4307F58D6E07F59461C2E9008911
:100B2000C7F86C34C7F8703407F59160C7F888547B
:100B3000C7F88C44C7F89044C7F89444C7F868E4F1
:100B4000C7F85C14C7F814A000F062FA3B6B094ABE
:100B5000C7F818A087F86064C7F85C240BB97B6BF2
:100B600083B172B6044BFB62FEE700BF930F002017
:100B700000000220000400207C200008C80800209B
:100B80000117000883F3118862B6BB69B14A9A6104
:100B900007F59C694B4607F5A868FF2203F8012B6F
:100BA0004345FBD3AC4B552103F1980203F8011BDD
:100BB0009342AA4DFAD3202383F3118800F030FA30
:100BC00000F08EFD00F0E4FA7B69A548A549C7F85E
:100BD000B4050024A5F1240E01260222A5F1D00CB3
:100BE000C7F8ECE4C7F8D41587F80025A5F1CC01C7
:100BF0000022C7F8F434C7F8B84587F80145C7F8AC
:100C00001C45C7F81845C7F8F8444FF0FF3EC7F831
:100C1000F074C7F8E864C7F8206587F80265C3F880
:100C20001090002345E92823A5F1B000C7F82C4512
:100C3000C7F83045C7F83445C7F808C5C7F828E5F0
:100C4000C7F80C15C7F81015C7F8FC84C7F814903E
:100C500000F0DEF900F054FAB869D7F8E834826899
:100C6000C7F804459342A5F5BB64A5F1F80540F229
:100C7000E98000F09DFA84F800658046A56100F0E7
:100C8000D7F9D4F8AC3408F14800013304F5A56174
:100C9000C4F8AC3400F06CF9EFF30983D8F81C20E9
:100CA000243B9A4200F2CA8028464146FFF7E8FA00
:100CB00000F006FD00F0A4F93A686B4BBA4205D08B
:100CC0009969926889689142C0F0C080002383F3DB
:100CD0001188664B664AC7F8F8244FF400414FF478
:100CE000805259835A8300F043FF624C01F068F848
:100CF00004F12C0501F02CF921460B20043400F0FE
:100D0000F7FF01F05DF9AC42F4D101F0D9F85A4C8B
:100D100000F0A6FE00F02CFF01F052F804F12005CF
:100D200001F016F921460820043400F0E1FF01F03B
:100D300047F9AC42F4D101F0C3F800F091FE4B4BFF
:100D40004E4C4FF400414FF4805259831A8300F007
:100D50000FFF01F035F804F1300501F0F9F82146F4
:100D60000C20043400F0C4FF01F02AF9AC42F4D1A5
:100D700001F0A6F800F074FE0A2000F029FD404CB6
:100D800000F0F6FE01F01CF804F1140501F0E0F8A3
:100D900021460520043400F0ABFF01F011F9AC420C
:100DA000F4D101F08DF8374C00F05AFE2F4B4FF480
:100DB00000414FF48052198304F115055A8300F065
:100DC000D7FE00F0FDFF01F0C3F8214601200334F7
:100DD00000F08EFF01F0F4F801F072F800F040FE30
:100DE000AC42ECD1214B284C4FF400414FF48052DF
:100DF000198304F115051A8300F0BAFE00F0E0FF34
:100E000001F0A6F821460120033400F071FF01F043
:100E1000D7F801F055F800F023FEAC42ECD14FF4C6
:100E200000551A4C2E4626834FF47A7000F0D0FC01
:100E300065834FF47A7000F0CBFCF4E772B6144B84
:100E4000E362FEE7284600F0B3F931E772B6114AD3
:100E5000DA62FEE7B0200008380E0020D00E002035
:100E6000C10E000891020008F80800200018024096
:100E70009420000818080020A00800204408002042
:100E800074080020880800200008002000080240A4
:100E9000842000086020000800000000000000001E
:100EA000EFF30983203383F30988002383F3118848
:100EB000704700BF000000000000000000000000BC
:100EC000FEE700BF0000000000000000000000007E
:100ED0004FF08043DA68920701D55863704772B6C5
:100EE000014B024ADA62FEE7F808002020220008DF
:100EF000202383F311880F4B5B6813F4006302D146
:100F000083F311887047EFF309834FF0807243F841
:100F1000042CA3F1200282F30988074A1168926920
:100F20008968926891428CBF044A054A43F8082CAC
:100F3000704700BF00ED00E0F8080020A90200089B
:100F4000BC020008000000000000000000000000DB
:100F5000034AD2F8A8340133C2F8A834704700BF5E
:100F6000F808002000000000000000000000000061
:100F70000E4B42685B6870B48B60D0E904458668AC
:100F8000C1689B1BE41845F1000501319342C16023
:100F90008360C0E9044505D80268934238BF036006
:100FA00070BC7047436070BC704700BF001000E029
:100FB0000F4B10495A688368F0B4D1F8A074C66822
:100FC0004168D0E90445D31ADB1BE41845F100055C
:100FD00001368B42C6608360C0E9044505D80268CB
:100FE000934238BF0360F0BC70474360F0BC704769
:100FF000001000E0F80800200000000000000000E1
:101000000148FFF7D5BF00BFA80D00200000000079
:10101000014B5B6883607047001000E00000000037
:101020000148FFF7F5BF00BFA80D00200000000039
:101030000C4A4FF08041D36B10B44C6A91695960EF
:101040001C60416A996090F820101973103302F502
:1010500088618B4228BF02F14003D3635DF8044BE3
:10106000704700BFF80800200000000000000000EA
:1010700070B51B4D2A68AC691368A1682B60012606
:1010800000205D6082F82060AA6184F8200000E002
:101090001B689A688A42FBD85A68626023602046BF
:1010A00014605C60FFF7C4FFD5F8AC34A9690C4E3E
:1010B0000133483104F14800C5F8AC34FFF758FF5C
:1010C000EFF30983E269243B9A4205D8B0692146CF
:1010D000BDE87040FFF7D4B872B6024BF362FEE78A
:1010E000F808002084200008000000000000000034
:1010F000FFF7BEBF0000000000000000000000007D
:10110000054B1A6B1AB95A6B002A00DD704772B68C
:10111000024ADA62FEE700BFF8080020B0210008AA
:1011200070B5164C0646FFF7EBFF2368A5691A68F1
:1011300085F8206001215460284683F82010226041
:10114000A361FFF775FFD4F8AC34A169013305F151
:1011500048004831C4F8AC34FFF70AFFEFF30983C5
:10116000EA69243B9A4205D8A0692946BDE8704047
:10117000FFF786B872B6024BE362FEE7F80800207C
:1011800084200008000000000000000000000000B3
:10119000054B1A6B002A03DB5A6B002A00DD7047EF
:1011A00072B6024ADA62FEE7F8080020B8210008A9
:1011B00010B50446FFF7ECFFCCB194F820308BB1AA
:1011C0000F2B0FD00022A1680B4B84F820201B6846
:1011D0009A688A42FBD25A68626023602046146093
:1011E0005C6010BD72B6044B044ADA62FEE772B668
:1011F000014B024ADA62FEE7F808002000220008EC
:10120000202383F31188074B1A6B002A01DD596BE9
:1012100019B172B6044ADA62FEE7013A1A6381F341
:1012200011887047F8080020C02100080000000065
:10123000202383F31188074B1A6B002A01DB596BBB
:1012400019B172B6044ADA62FEE701321A6381F319
:1012500011887047F8080020C8210008000000002D
:1012600010B5FFF775FEFFF7E3FF094B0948596812
:10127000826E890901F03D018C01DC600AB1C06E0B
:101280009047FFF7BDFFBDE81040FFF731BE00BF3C
:1012900000640240040F0020000000000000000075
:1012A00008B5FFF755FEFFF7C3FF084B084859681C
:1012B000026E01F03D01D9600AB1406E9047FFF720
:1012C0009FFFBDE80840FFF713BE00BF0064024067
:1012D000040F0020000000000000000000000000DB
:1012E00010B5FFF735FEFFF7A3FF094B0948196852
:1012F000826D890D01F03D018C059C600AB1C06DC5
:101300009047FFF77DFFBDE81040FFF7F1BD00BF3C
:1013100000640240040F00200000000000000000F4
:1013200010B5FFF715FEFFF783FF094B0948196851
:10133000026D090C01F03D010C049C600AB1406D86
:101340009047FFF75DFFBDE81040FFF7D1BD00BF3C
:1013500000640240040F00200000000000000000B4
:1013600010B5FFF7F5FDFFF763FF094B0948196852
:10137000826C890901F03D018C019C600AB1C06C4E
:101380009047FFF73DFFBDE81040FFF7B1BD00BF3C
:1013900000640240040F0020000000000000000074
:1013A00008B5FFF7D5FDFFF743FF084B084819685C
:1013B000026C01F03D0199600AB1406C9047FFF763
:1013C0001FFFBDE80840FFF793BD00BF0064024067
:1013D000040F0020000000000000000000000000DA
:1013E00010B5FFF7B5FDFFF723FF094B0948596812
:1013F000826B890D01F03D018C05DC600AB1C06B88
:101400009047FFF7FDFEBDE81040FFF771BD00BF3C
:1014100000600240040F00200000000000000000F7
:1014200010B5FFF795FDFFF703FF094B0948596811
:10143000026B090C01F03D010C04DC600AB1406B49
:101440009047FFF7DDFEBDE81040FFF751BD00BF3C
:1014500000600240040F00200000000000000000B7
:1014600010B5FFF775FDFFF7E3FE094B0948596812
:10147000826A890901F03D018C01DC600AB1C06A11
:101480009047FFF7BDFEBDE81040FFF731BD00BF3C
:1014900000600240040F0020000000000000000077
:1014A00008B5FFF755FDFFF7C3FE084B084859681C
:1014B000026A01F03D01D9600AB1406A9047FFF726
:1014C0009FFEBDE80840FFF713BD00BF006002406B
:1014D000040F0020000000000000000000000000D9
:1014E00010B5FFF735FDFFF7A3FE094B0948196852
:1014F0008269890D01F03D018C059C600AB1C069CB
:101500009047FFF77DFEBDE81040FFF7F1BC00BF3C
:1015100000600240040F00200000000000000000F6
:1015200010B5FFF715FDFFF783FE094B0948196851
:101530000269090C01F03D010C049C600AB140698C
:101540009047FFF75DFEBDE81040FFF7D1BC00BF3C
:1015500000600240040F00200000000000000000B6
:1015600010B5FFF7F5FCFFF763FE094B0948196852
:101570008268890901F03D018C019C600AB1C06854
:101580009047FFF73DFEBDE81040FFF7B1BC00BF3C
:1015900000600240040F0020000000000000000076
:1015A00008B5FFF7D5FCFFF743FE084B084A19685A
:1015B00001F03D01996013680BB150689847FFF73F
:1015C0001FFEBDE80840FFF793BC00BF006002406B
:1015D000040F0020000000000000000000000000D8
:1015E000064B1A6B002A05DD5A6B002A02DD002229
:1015F0005A63704772B6024ADA62FEE7F8080020C2
:10160000D0210008000000000000000000000000E1
:10161000064B1A6B002A01DD5A6B1AB172B6044AE6
:10162000DA62FEE701225A63704700BFF808002023
:10163000D8210008000000000000000000000000A9
:1016400038B50446202383F311881948FFF7E0FCDE
:10165000FFF7DEFF94F82030072B10D8DFE803F007
:10166000150F0F1E0A040F0A656AFFF791FDAB689C
:101670000133AB6094E80C001A60226853604FF0AD
:10168000FF3363622046FFF793FDFFF7A9FF084889
:10169000FFF78EFC002383F3118838BD636A0022B4
:1016A0001A604FF0FF3363622046FFF781FDECE7DD
:1016B000C00D00200000000000000000000000003D
:1016C000054B1A6B22B9596B002901DD5A6370472B
:1016D00072B6024ADA62FEE7F8080020E02100084C
:1016E000054B1A6B0AB95A6B1AB172B6034ADA6221
:1016F000FEE701225A637047F8080020E82100083D
:1017000010B52023044683F31188FFF789FCFFF707
:10171000E7FFFFF73DFD1248124B02681968E31D11
:1017200023F00703891A8B429DBF9B180360144660
:101730000024FFF7C5FFFFF763FC0B4B1A689A42C2
:1017400004D0996992688968914204D3002383F395
:101750001188204610BD72B6044ADA62FEE700BF67
:10176000C0080020C8080020F8080020A0210008B8
:1017700008B50646202383F31188114DFFF750FC6E
:10178000FFF7AEFFAC69A06A666204F12806B042BA
:1017900006D00268A262FFF70BFDA06AB042F8D142
:1017A00094F821309B0704D1636922691A61226988
:1017B00053610F20FFF7B4FC72B6024BEB62FEE7F9
:1017C000F8080020102200080000000000000000BF
:1017D0002DE9F041202386B0074683F31188FFF7F7
:1017E0001FFCFFF77DFF002F5FD0FFF789FC7B1CFC
:1017F00060D0524C2646FFF7CBFC56F81C3FA2693E
:101800004F480592012F4FF0804108BF0227B34295
:101810004A6A04907AD0A56A9968B818451B8D4227
:101820006FD38D4204D91B686D1A9968A942FAD307
:101830005A6802920DF104080193C2F80080C3F8BF
:10184000048003959A684FF0FF31521B9A606162E1
:101850000820FFF765FCFFF79BFC049B93B1FFF7A3
:1018600097FCE369354943452DD0029A019B1360EB
:10187000019B0021B3425A60049103D09968039AF6
:101880000A449A60FFF71CFFFFF7BAFB22682B4B54
:10189000A24204D099699268896891420FD30023CB
:1018A00083F3118806B0BDE8F08172B6234B254A58
:1018B000DA62FEE70820FFF733FC204CE2E772B65D
:1018C000214ADA62FEE7019ACA610023B2425660F9
:1018D000049312D003989368896A03444FF08040C0
:1018E0009360406A421A9342CCD99B1A012B98BF4D
:1018F00002231844FFF7ECFAC4E74FF08042D360AC
:10190000C0E7FFF7E5FAE36999688AE7A2620397FF
:10191000C86801930DF1040810F0020002933A44E4
:10192000C4F81C80C4F8208004D102234A630861F3
:10193000CB608DE772B6054BE362FEE7F808002046
:10194000411600089021000860200008F0210008DE
:10195000FEE700BF000000000000000000000000E3
:10196000FEE700BF000000000000000000000000D3
:10197000704700BF000000000000000000000000F1
:10198000704700BF000000000000000000000000E1
:10199000002853D0F0B52C4E457A3268012303FA63
:1019A00005F7174246D1294CDFF8B0E044F835106E
:1019B00047EA020304EBC50413F0FF0F3360C4F8D9
:1019C00004E004D0224C226B42F40012226313F490
:1019D0007F4F29D10268136823F01F031360136837
:1019E00013F00103FBD1057A46683D24AC40212564
:1019F000346013605561F9B1817A4A09920001F1AE
:101A0000604402F1604202F5614204F56144012044
:101A100001F01F0100FA01F1A02584F80053C2F87B
:101A2000801111601846F0BD094A136B43F480031E
:101A30001363CFE71846F0BD0846F0BD72B6054BFC
:101A4000054ADA62FEE700BF880F0020040F00207D
:101A500000380240F808002060220008D00E002064
:101A60002DE9F0473D4D2023D5F8189083F31188D8
:101A7000FFF7D6FAFFF734FED9F83C3033B19A6855
:101A8000914507D072B6364BEB62FEE772B6344B27
:101A9000EB62FEE7334CE769002F5ADD013FE76157
:101AA000002F3ED104F10C0A534503D072B62C4BE3
:101AB000EB62FEE7A669C9F83C60FFF721FBD4F8AA
:101AC0000C80D04543D0D9F840705EB1FFF718FBC9
:101AD00033689E4203D09B689F4238BF1F46F6681A
:101AE000002EF3D1D8F80030C9F808700122E26165
:101AF000D8F83C20E3604046C3F804A0A261C8F8CF
:101B00003CA0C4F81480FFF753FBFFF7F9FAFFF786
:101B10003FFBAA692B6892689B689A4201D2FFF743
:101B2000A7FAFFF7CDFDFFF76BFA2A680B4BAA4225
:101B300004D0996992688968914204D3002383F3A1
:101B40001188BDE8F08772B6074ADA62FEE767617E
:101B5000E7E772B6024BEB62FEE700BFF808002031
:101B600080220008D00E0020902200080000000013
:101B7000F8B5202383F31188554D564EFFF750FAE0
:101B8000FFF7AEFDFFF7BCFA6869B469EB6900289E
:101B90004CD0002B40F39780844200F09180A268E3
:101BA0008368934211D290F820308260062B6DD06A
:101BB000072B27D04BB990E80C00012180F82010AA
:101BC0001A6002685360FFF7F3FA434A134603E0D2
:101BD0009868A168884202D31B689342F8D159687B
:101BE0006160236006200C605C606262FFF798FA17
:101BF0006969374B8C4203F10C0239D072B6374B0E
:101C0000F362FEE790E80A0019600768416A7B60AA
:101C10000B4602E09F68974202D31B689942F9D1B4
:101C20005A684260036010605860CEE7C3B9E26B47
:101C30006C61012105F10C03E961AA61E363FFF71F
:101C40003FFDFFF7DDF93268224BB24204D09969BB
:101C500092688968914207D3002383F31188F8BD05
:101C600072B61E4BF362FEE772B61D4ADA62FEE7F9
:101C7000E16B914203D072B6184BF362FEE7DB6969
:101C8000012BDCD072B6154BF362FEE790E80A0038
:101C900019600768416A7B600B4602E09F689742C3
:101CA00002D31B689942F9D15A6842600360106000
:101CB00058608868A26883689A423FF674AF84E7E8
:101CC0000133EB61BBE772B6044BF362FEE700BF82
:101CD000D00E0020F8080020DC0E0020D0220008E2
:101CE000902200080000000000000000000000003A
:101CF000F8B590B189B104460E46202383F31188CC
:101D0000FFF78EF9FFF7ECFC274B1A78022A09D06F
:101D100072B6264B264ADA62FEE772B6234B244A95
:101D2000DA62FEE75A68126822B172B61F4B204A87
:101D3000DA62FEE7596A9A6A09681D6B12681D48E3
:101D4000DF6AC86045F4806503204C6018700F603E
:101D5000D660546015600D68144C9F68A66945F004
:101D600001050D60116841F0010111601FB172B6EB
:101D7000114BE362FEE743F8086F7362FFF7D0F997
:101D8000FFF79EFCFFF73CF92368A34204D0A26949
:101D90009B6892689A4203D3002383F31188F8BDAD
:101DA00072B6064BE362FEE7D00E0020F808002072
:101DB00030220008840F002050220008A0220008D2
:101DC00070B5202383F31188334CFFF729F9FFF70F
:101DD00087FC2278531E012B04D972B62F4B304A50
:101DE000DA62FEE72F4B6360012A2ED05989236BFC
:101DF000E26A080523F4F04348BF43F4205322F479
:101E0000F042236348BF42F42052236AE26241F465
:101E1000417100200722186019605A601A6842F068
:101E200040021A6002232370FFF74AFCFFF7E8F82C
:101E30001A4B1A689A4221D099699268896891422E
:101E40001CD272B6184ADA62FEE7606A1749FFF7D9
:101E50009FFDE0B9A06A1649FFF79AFD90B91548B1
:101E6000656AA36A416C226A2E681D6863680C3239
:101E700041F480514164B260AA60B7E7002383F364
:101E8000118870BD72B6054B0B4ADA62FEE772B676
:101E9000024B094ADA62FEE7D00E0020F808002063
:101EA000F022000800230008A0220008E102000838
:101EB000C102000800380240B02200080000000003
:101EC00010B5202383F311881B4CFFF7A9F8FFF707
:101ED00007FC23785A1E012A04D972B6174B184AF8
:101EE000DA62FEE7022B12D001232370FFF7E8FB32
:101EF000FFF786F8114B1A689A4204D099699268E4
:101F00008968914213D3002383F3118810BD236A9B
:101F1000606A00221A605A60FEF772FBA06AFEF740
:101F20006FFB084A536C23F480535364DCE772B6AA
:101F3000054ADA62FEE700BFD00E0020F808002054
:101F4000E022000800380240A02200080000000043
:101F500008B5202383F31188FFF762F8FFF7C0FB71
:101F6000124B1A78022A04D072B6114B114ADA6267
:101F7000FEE75B6819895A6801238B409BB2538343
:101F8000FFF79EFBFFF73CF8094B1A689A4204D012
:101F9000996992688968914203D3002383F3118879
:101FA00008BD72B6044ADA62FEE700BFD00E002018
:101FB000F8080020C0220008A0220008000000004D
:101FC00008B5202383F31188FFF72AF8FFF788FB71
:101FD000124B1A78022A04D072B6114B114ADA62F7
:101FE000FEE75B6819895A6801238B409BB2138313
:101FF000FFF766FBFFF704F8094B1A689A4204D012
:10200000996992688968914203D3002383F3118808
:1020100008BD72B6044ADA62FEE700BFD00E0020A7
:10202000F808002040220008A0220008000000005C
:102030006368546864526573756D654900000000FB
:10204000646D6153747265616D52656C6561736531
:102050000000000000000000000000000000000080
:102060006368537973556E6C6F636B0000000000FA
:10207000444D41206661696C757265005356233387
:1020800000000000737461636B206F766572666C8C
:102090006F77000069646C650000000000000000BC
:1020A00063685654446F5469636B49000000000034
:1020B0006D61696E00160318040460080C10141892
:1020C0001C20212200000000000000000000000091
:1020D000106002400860024000000B0028600240CF
:1020E0000860024006010C004060024008600240A7
:1020F00010020D00586002400860024016030E00F6
:10210000706002400C60024000040F0088600240D2
:102110000C60024006051000A06002400C60024006
:1021200010061100B86002400C60024016072F0034
:10213000106402400864024000083800286402402D
:102140000864024006093900406402400864024005
:10215000100A3A005864024008640240160B3B0023
:10216000706402400C640240000C3C008864024031
:102170000C640240060D4400A06402400C6402405E
:10218000100E4500B86402400C640240160F460071
:102190006368546864536C65657053000000000008
:1021A0006368537973556E6C6F636B0000000000B9
:1021B00053562331310000005356233130000000C4
:1021C0005356233900000000535623380000000006
:1021D00053562337000000005356233600000000FA
:1021E00053562335000000005356233400000000EE
:1021F00073745374617274416C61726D00000000FD
:1022000063685363685265616479490000000000A7
:1022100063685468644578697453000000000000E6
:102220007374536574416C61726D000000000000AE
:1022300073706953656E64000000000000000000C8
:10224000737069556E73656C6563740000000000FF
:10225000636854686453757370656E64530000005E
:10226000646D6153747265616D416C6C6F63617410
:1022700065000000000000000000000000000000F9
:1022800063684D7478556E6C6F636B0000000000DE
:102290006368537973556E6C6F636B0000000000C8
:1022A0006368537973556E6C6F636B0000000000B8
:1022B0007370695F6C6C645F7374617274000000AA
:1022C00073706953656C6563740000000000000062
:1022D00063684D74784C6F636B530000000000001E
:1022E00073706953746F70000000000000000000FC
:1022F0007370695374617274000000000000000084
:0C2300000000000000000240040030005B
:102310000000000010200011200014000015000033
:1023200017030018000000000000000700003E86B0
:1023300000803E8600128F7500928F750018008411
:10234000001800C4006304C31040019200000001A3
:10235000B03660000001041C0061300B00C03EBAC2
:102360003F402C89102D042810000017151FE0761F
:1023700000800025300109840000000300004002B5
:10238000000000010000C0403000898400004002CD
:1023900000000001000003200000000010200011D8
:1023A00020001400001500001703001800000000B2
:1023B0000000000700003E8600128F7500180084A0
:1023C000006304C31040019200000001B0366000B9
:04000005080001C12D
:00000001FF
