:020000040800F2
:1000000000040020C1010008D1180008D118000820
:10001000D1180008D1180008D1180008D11800081C
:10002000D1180008D1180008D1180008A10E000846
:10003000D1180008D1180008D1180008D1180008FC
:10004000D1180008D1180008D1180008D1180008EC
:10005000D1180008D1180008D1180008D1180008DC
:10006000D1180008D1180008D1180008211600087E
:10007000E1150008A1150008611500082115000808
:10008000E1140008A1140008D1180008D1180008D4
:10009000D1180008D1180008D1180008D11800089C
:1000A000D1180008D1180008D1180008D11800088C
:1000B000A1030008D1180008D1180008D1180008C1
:1000C000D1180008D1180008D1180008D11800086C
:1000D000D1180008D1180008D1180008D11800085C
:1000E000D1180008D1180008D1180008D11800084C
:1000F000D1180008D1180008D118000861140008B0
:10010000D1180008D1180008D1180008D11800082B
:10011000D1180008D1180008D1180008D11800081B
:1001200021140008E1130008A1130008611300085E
:1001300021130008D1180008D1180008D1180008B0
:10014000D1180008D1180008D1180008D1180008EB
:10015000E1120008A112000861120008D11800087D
:10016000D1180008D1180008D1180008D1180008CB
:10017000D1180008D1180008D1180008D1180008BB
:10018000D1180008D1180008D1180008D1180008AB
:10019000D1180008D1180008D1180008D11800089B
:1001A000D1180008D1180008D1180008D11800088B
:1001B000D1180008D1180008D1180008D11800087B
:1001C00072B6214880F30988022080F31488BFF3B7
:1001D0006F8F01F095FB00F06BF91C481C491D4A1C
:1001E00091423CBF41F8040BFAE71B49164A914281
:1001F0003CBF41F8040BFAE71849194A194B9A42D7
:100200003EBF51F8040B42F8040BF8E700201649F2
:10021000164A91423CBF41F8040BFAE701F068FB33
:10022000134C144DAC4203DA54F8041B8847F9E729
:1002300000F056FA104C114DAC4203DA54F8041B8E
:100240008847F9E701F04CBB00080020555555558B
:1002500000000020000400200004002030220008DC
:10026000000800205408002058080020200F00201B
:10027000C0010008C0010008C0010008C00100085A
:100280002DE9F04FC1F80CD0D0F80CD0BDE8F08FBC
:1002900001F056FA00F0B4FE002383F311882846DB
:1002A000A047002001F0E4FA00F0BAFE01F098FA4D
:1002B00000F01EFF01F044FA00F0A2FE00DFFEE7AE
:1002C00011F00C0F00D1704772B6024B024ADA628D
:1002D000FEE700BF100900207020000800000000A9
:1002E00011F00C0F38B54BD1816A0B681A6822F0F7
:1002F0001F021A601A68D407FCD40D7A426A4C684F
:1003000013683D21A9402160196821F01F0119607F
:100310001968C907FCD4436851680446107A1A6802
:100320003D2383400B6042B3042323702046904753
:100330002378042B21D0202383F31188134800F065
:1003400067FE01F0A5F9A36873B193F82020032A92
:1003500004D072B60E4B0F4ADA62FEE70022A260AA
:1003600018465A6200F024FF01F07AF9074800F0BD
:100370001FFE002383F3118838BD02232370DAE7C0
:1003800072B6054B054ADA62FEE700BFD80D0020C1
:1003900010090020601F00081009002070200008CC
:1003A0002DE9F8434FF0804600F0D2FD00F040FF09
:1003B00033699B0705D400F023FFBDE8F84300F044
:1003C00097BD00273761202383F31188314D05F550
:1003D000996000F01DFE01F05BF900F0D9FE00F01D
:1003E000D7FEEC69726AA96AA368501A984238BFAE
:1003F00005F11C0628D3B846374605F11C062268CD
:10040000D4F80C900B44B242AB625660EA61C4F877
:100410000C8008BFC7F80C8001F022F91E4800F0DC
:10042000C7FD88F311882069C847202383F311880A
:10043000194800F0EDFD01F02BF9EC697A6AA96A20
:10044000A368501A8342DAD9B44215D00B449B1AE0
:10045000012B98BF02239C18204600F039FD4FF075
:100460008043A96A5A6A0D48631A521A9A4203D9FC
:1004700072B60B4BC362FEE701F0F2F8064800F0DB
:1004800097FD002383F3118800F0BAFEBDE8F8431E
:1004900000F02EBD10090020D80D0020100900200A
:1004A000A020000800000000000000000000000084
:1004B0002C492D4B4FF080504FF4404208641A6095
:1004C0000B6843F001030B600A68264B9007FBD5CD
:1004D0009A6822F003029A609A689A6019468B68BB
:1004E000204A13F00C03FAD1116801F0F9011160F0
:1004F0009360136843F4803313601168194B8903C8
:10050000FBD55A6F42F001025A675A6F154990079E
:10051000FBD5164B4B600B68134A43F080730B609E
:1005200053685904FCD50F490A680E4B9201FBD55C
:100530000F4A1049996040F2057111609A6842F0C3
:1005400002029A601A469368064903F00C03082BCE
:10055000F9D14B6C43F480434B644B6E43F48043BE
:100560004B66704700380240007000400C54400752
:10057000003C0240009488380000000000000000A9
:10058000002836D0F0B41D4D437A2A68012101FAC3
:1005900003F3134228D0837A194E5C09203403F008
:1005A0001F0703F1604303F5614301FA07F746F8BB
:1005B0002470002483F80043437A01FA03F322EA0B
:1005C000030313F0FF0F2B6004D10E490A6B22F4D2
:1005D00000120A6313F47F4F04D10A4A136B23F409
:1005E00080031363F0BC704772B6074B074ADA62A8
:1005F000FEE772B6044B054ADA62FEE71C0F0020E4
:1006000000E100E00038024010090020801F0008CF
:10061000F8B590B189B104460E46202383F31188C2
:1006200000F0FEFC01F0DCF8274B1A78022A09D012
:1006300072B6264B264ADA62FEE772B6234B244A8C
:10064000DA62FEE75A68126822B172B61F4B204A7E
:10065000DA62FEE7596A9A6A09681D6B12681D48DA
:10066000DF6AC86045F4806503204C6018700F6035
:10067000D660546015600D68144C9F68A66945F0FB
:1006800001050D60116841F0010111601FB172B6E2
:10069000114BE362FEE743F8086F736200F040FD20
:1006A00001F04EF800F0ACFC2368A34204D0A2692C
:1006B0009B6892689A4203D3002383F31188F8BDA4
:1006C00072B6064BE362FEE7E80E00201009002038
:1006D000701F00088C080020D0200008802100082E
:1006E000C94BCA4C1A694FF0FF3100222DE98048EE
:1006F00019611A61586959615A61186A60F080502D
:1007000018621A62586A59625A62196C41F0805133
:100710001964216841F480712160196F01F44071FE
:10072000B1F5007F87B003D04FF4803119671A67A5
:10073000B648B74C4268B74EB74D002122F400725C
:1007400042600B460A462160F058016045F83210BD
:100750000132102A03F10C034FF00004F4D1DFF84A
:10076000F4B2AE49DFF8A082AD4EAE48AE4BDFF832
:10077000E8A2DFF8E892DFF8E8C2DFF8E8E2AB4F82
:100780004FF0FF35CBF80850CBF80C508D60CD60A2
:10079000D8F830B06FEA5B2B6FEA4B2BC8F830B05B
:1007A000D8F850B06FEA5B2B6FEA4B2BC8F850B00B
:1007B000DFF8B4B27460B560C6F80CB04FF6FF6BEA
:1007C000C6F814B0DFF8A4B2C6F820B0DFF8A0B2C3
:1007D000C6F824B00BF12B4BABF5D20BABF1D80B19
:1007E000C6F800B04FF44076DFF888B24660856006
:1007F0004FF6FE76C0F80CB04FF4A00B4661C0F87F
:1008000020B0DFF874B28A4E4662C0F800B0ABF197
:10081000CB5BABF56C2B01264FF6FF70ABF2D14BE7
:100820005C609D60DE605861C3F820B0DFF84CB2B8
:10083000C3F824B0DFF848B2C3F800B0DFF844B220
:10084000CAF80440CAF80850CAF80CB04FF4406B1C
:10085000CAF81400CAF820B04FF0200BCAF82440A0
:10086000CAF800B0DFF820A2C9F80440C9F808505F
:10087000C9F80CA04FF4885AC9F81400C9F82040F0
:10088000C9F82440C9F800A0DFF80092CCF8044071
:10089000CCF80850CCF80C90DFF8F491CCF81400A8
:1008A000A1F58841CCF82040CCF82440CCF8004099
:1008B000CEF80440DFF8DCC1CEF80850CEF80C903A
:1008C000DFF8D491CEF81400CEF82040CEF824C042
:1008D000CEF80090DFF8C4C17C604FF0553EBD609B
:1008E000C7F80CC078613C627C623C604C608D60F3
:1008F000C1F80CE048610C624C620C60D8F84070A2
:100900004C4B4D49DFF898911E7037435C600D8069
:10091000C8F84070D9F80880DFF888E19C604FF093
:10092000804748EA0608C9F808804449DFF878C1DA
:100930004348DFF878A142F2CF08C7F828804FF08B
:1009400080094FF08058FD62BC617C63FC607C6074
:100950007E613E608EF81C93CEF88081CEF80080D8
:100960008C60D1F80C80DFF84891C3F820A04FF6D6
:10097000FF0708EA070738430CF1240703F10C0AC4
:100980009F62304FC3F824C0C3F82C901F63C3F894
:100990000CA0C3F810A05C61DC61C860DEF8FC3C10
:1009A00029482A4FDFF80CA143F08073CEF8FC3CB5
:1009B00003687F60334303604FF00008CA7707F194
:1009C0001C0381F822B04FF0000968463F60FB61CC
:1009D0003B620095019402940394BC603F617F6187
:1009E0007D62BC62C7F8A044CDE9048900F010FB29
:1009F000684600F0DDFA029A154BC7F8A02407F507
:100A0000986B07F59B6257E0003802400070004089
:100A10001C0F0020B01F0008900800200064024056
:100A2000000002400004024000080240001C024096
:100A300044050CCCE80E00208008002000ED00E00A
:100A40000003FA0546000106001000E0100900202E
:100A50005808002000600240000C024000100240D4
:100A6000001402400018024000010820B00B50B5ED
:100A700000AA0A0000404008811A2AA2CCCC0C002F
:100A8000A8AAAA06455555554540555555551555DD
:100A90005545040000B0B00B000091695055555504
:100AA000002004E000E100E01020000800300140D8
:100AB000160001068808002040484149DFF80CC1B3
:100AC000DFF80CE1C3F800E0CBE90089C2E9008956
:100AD00007F1400B022220F0070021F00701C7F8C0
:100AE0003CB087F8602403F1100B4022CAF80000E4
:100AF000CCF800109C60DC609C611C62C3F810B0F4
:100B0000C3F814B0BA63C7F84824C7F88024C7F8FC
:100B1000A844C7F8AC44C7F8B054C7F8B444C7F801
:100B2000B844C7F8BC44C7F8C854C7F8CC44C7F8A1
:100B3000D044C7F8D44487F86144C7F87C44C7F868
:100B4000784487F86264C7F85844C7F850747B69E2
:100B5000C7F8543407F5886AC3F810A007F5936204
:100B600007F26C4307F58D6E07F59461C2E90089C1
:100B7000C7F86C34C7F8703407F59160C7F888542B
:100B8000C7F88C44C7F89044C7F89444C7F868E4A1
:100B9000C7F85C14C7F814A000F03AFA3B6B094A96
:100BA000C7F818A087F86064C7F85C240BB97B6BA2
:100BB00083B172B6044BFB62FEE700BF270F002033
:100BC00000000220000400207C200008840800208F
:100BD0000118000883F3118862B6BB69A14A9A61C3
:100BE00007F59C694B4607F5A868FF2203F8012B1F
:100BF0004345FBD39C4B552103F1980203F8011B9D
:100C000093429A4DFAD3202383F3118800F008FA17
:100C100000F0E6FD00F0BCFA7B6995489549C7F8FD
:100C2000B4050024A5F1240E01260222A5F1D00C62
:100C3000C7F8ECE4C7F8D41587F80025A5F1CC0176
:100C40000022C7F8F434C7F8B84587F80145C7F85B
:100C50001C45C7F81845C7F8F8444FF0FF3EC7F8E1
:100C6000F074C7F8E864C7F8206587F80265C3F830
:100C70001090002345E92823A5F1B000C7F82C45C2
:100C8000C7F83045C7F83445C7F808C5C7F828E5A0
:100C9000C7F80C15C7F81015C7F8FC84C7F81490EE
:100CA00000F0B6F900F02CFAB869D7F8E834826899
:100CB000C7F804459342A5F5BB64A5F1F80540F2D9
:100CC000C08000F075FA84F800658046A56100F0E8
:100CD000AFF9D4F8AC3408F14800013304F5A5614C
:100CE000C4F8AC3400F044F9EFF30983D8F81C20C1
:100CF000243B9A4200F2A18028464146FFF7C0FA01
:100D000000F01EFD00F07CF93A685B4BBA4205D05A
:100D10009969926889689142C0F09780002383F3B3
:100D20001188564BC7F8F834202383F3118800F05C
:100D300077F9534C00F054FD00F0EAFE00F030FD6E
:100D400000F0F6FF4F4B4FF400414FF480525983AF
:100D500004F120055A8301F093F821460820043459
:100D6000FFF756FC01F0C4F8AC42F4D101F050F8A2
:100D700000F066FF202383F3118800F051F9424C04
:100D800000F02EFD00F0C4FE00F00AFD00F0D0FFE0
:100D90003C4B4FF400414FF48052598304F1340529
:100DA0001A8301F06DF821460D200434FFF730FC62
:100DB00001F09EF8AC42F4D101F02AF800F040FFB7
:100DC0004FF40055DFF8CC802B4EA9462024A8F81C
:100DD000189084F3118800F023F900F001FD00F071
:100DE000FFFD00F0ADFC00F00BF93B682249BB426F
:100DF0004FF0000204D0B0699B688068984228D305
:100E000082F31188A8F81A5084F3118800F008F9C9
:100E100000F0E6FC00F0E4FD00F092FC00F0F0F8D9
:100E20003B681549BB4204D0B2699B6892689A42FC
:100E300013D3002383F31188C9E772B6134BE3621F
:100E4000FEE7284600F0B4F95AE772B6104ADA62B3
:100E5000FEE772B60E4BCB62FEE772B60C4BCB626E
:100E6000FEE700BFB0200008500E0020E80E002072
:100E7000C10E00089102000810090020942000080B
:100E800000080020001802402008002084200008EC
:100E9000A01F000800080240000000000000000041
:100EA000EFF30983203383F30988002383F3118848
:100EB000704700BF000000000000000000000000BC
:100EC000FEE700BF0000000000000000000000007E
:100ED0004FF08043DA68920701D55863704772B6C5
:100EE000014B024ADA62FEE7100900206021000887
:100EF000202383F311880F4B5B6813F4006302D146
:100F000083F311887047EFF309834FF0807243F841
:100F1000042CA3F1200282F30988074A1168926920
:100F20008968926891428CBF044A054A43F8082CAC
:100F3000704700BF00ED00E010090020A902000882
:100F4000BC020008000000000000000000000000DB
:100F5000034AD2F8A8340133C2F8A834704700BF5E
:100F60001009002000000000000000000000000048
:100F70000E4B42685B6870B48B60D0E904458668AC
:100F8000C1689B1BE41845F1000501319342C16023
:100F90008360C0E9044505D80268934238BF036006
:100FA00070BC7047436070BC704700BF001000E029
:100FB0000F4B10495A688368F0B4D1F8A074C66822
:100FC0004168D0E90445D31ADB1BE41845F100055C
:100FD00001368B42C6608360C0E9044505D80268CB
:100FE000934238BF0360F0BC70474360F0BC704769
:100FF000001000E0100900200000000000000000C8
:101000000148FFF7D5BF00BFC00D00200000000061
:10101000014B5B6883607047001000E00000000037
:101020000148FFF7F5BF00BFC00D00200000000021
:101030000C4A4FF08041D36B10B44C6A91695960EF
:101040001C60416A996090F820101973103302F502
:1010500088618B4228BF02F14003D3635DF8044BE3
:10106000704700BF100900200000000000000000D1
:1010700070B51B4D2A68AC691368A1682B60012606
:1010800000205D6082F82060AA6184F8200000E002
:101090001B689A688A42FBD85A68626023602046BF
:1010A00014605C60FFF7C4FFD5F8AC34A9690C4E3E
:1010B0000133483104F14800C5F8AC34FFF758FF5C
:1010C000EFF30983E269243B9A4205D8B0692146CF
:1010D000BDE87040FFF7D4B872B6024BF362FEE78A
:1010E000100900208420000800000000000000001B
:1010F000FFF7BEBF0000000000000000000000007D
:10110000054B1A6B1AB95A6B002A00DD704772B68C
:10111000024ADA62FEE700BF100900200021000841
:1011200070B5164C0646FFF7EBFF2368A5691A68F1
:1011300085F8206001215460284683F82010226041
:10114000A361FFF775FFD4F8AC34A169013305F151
:1011500048004831C4F8AC34FFF70AFFEFF30983C5
:10116000EA69243B9A4205D8A0692946BDE8704047
:10117000FFF786B872B6024BE362FEE71009002063
:1011800084200008000000000000000000000000B3
:10119000054B1A6B002A03DB5A6B002A00DD7047EF
:1011A00072B6024ADA62FEE7100900200821000840
:1011B00010B50446FFF7ECFFCCB194F820308BB1AA
:1011C0000F2B0FD00022A1680B4B84F820201B6846
:1011D0009A688A42FBD25A68626023602046146093
:1011E0005C6010BD72B6044B044ADA62FEE772B668
:1011F000014B024ADA62FEE7100900204021000894
:10120000202383F31188074B1A6B002A01DD596BE9
:1012100019B172B6044ADA62FEE7013A1A6381F341
:1012200011887047100900201021000800000000FC
:10123000202383F31188074B1A6B002A01DB596BBB
:1012400019B172B6044ADA62FEE701321A6381F319
:1012500011887047100900201821000800000000C4
:1012600010B5FFF775FEFFF7E3FF094B0948596812
:10127000826F890D01F03D018C05DC600AB1C06F01
:101280009047FFF7BDFFBDE81040FFF731BE00BF3C
:1012900000640240900800200000000000000000F0
:1012A00010B5FFF755FEFFF7C3FF094B0948596812
:1012B000026F090C01F03D010C04DC600AB1406FC3
:1012C0009047FFF79DFFBDE81040FFF711BE00BF3C
:1012D00000640240900800200000000000000000B0
:1012E00010B5FFF735FEFFF7A3FF094B0948596812
:1012F000826E890901F03D018C01DC600AB1C06E8B
:101300009047FFF77DFFBDE81040FFF7F1BD00BF3C
:10131000006402409008002000000000000000006F
:1013200008B5FFF715FEFFF783FF084B084859681B
:10133000026E01F03D01D9600AB1406E9047FFF79F
:101340005FFFBDE80840FFF7D3BD00BF0064024067
:1013500090080020000000000000000000000000D5
:1013600010B5FFF7F5FDFFF763FF094B0948196852
:10137000826D890D01F03D018C059C600AB1C06D44
:101380009047FFF73DFFBDE81040FFF7B1BD00BF3C
:1013900000640240900800200000000000000000EF
:1013A00010B5FFF7D5FDFFF743FF094B0948196852
:1013B000026D090C01F03D010C049C600AB1406D06
:1013C0009047FFF71DFFBDE81040FFF791BD00BF3C
:1013D00000640240900800200000000000000000AF
:1013E00010B5FFF7B5FDFFF723FF094B0948196852
:1013F000826C890901F03D018C019C600AB1C06CCE
:101400009047FFF7FDFEBDE81040FFF771BD00BF3C
:10141000006402409008002000000000000000006E
:1014200008B5FFF795FDFFF703FF084B084819685B
:10143000026C01F03D0199600AB1406C9047FFF7E2
:10144000DFFEBDE80840FFF753BD00BF0064024067
:1014500090080020000000000000000000000000D4
:1014600010B5FFF775FDFFF7E3FE094B0948596812
:10147000826B890D01F03D018C05DC600AB1C06B07
:101480009047FFF7BDFEBDE81040FFF731BD00BF3C
:1014900000600240900800200000000000000000F2
:1014A00010B5FFF755FDFFF7C3FE094B0948596812
:1014B000026B090C01F03D010C04DC600AB1406BC9
:1014C0009047FFF79DFEBDE81040FFF711BD00BF3C
:1014D00000600240900800200000000000000000B2
:1014E00010B5FFF735FDFFF7A3FE094B0948596812
:1014F000826A890901F03D018C01DC600AB1C06A91
:101500009047FFF77DFEBDE81040FFF7F1BC00BF3C
:101510000060024090080020000000000000000071
:1015200008B5FFF715FDFFF783FE084B084859681B
:10153000026A01F03D01D9600AB1406A9047FFF7A5
:101540005FFEBDE80840FFF7D3BC00BF006002406B
:1015500090080020000000000000000000000000D3
:1015600010B5FFF7F5FCFFF763FE094B0948196852
:101570008269890D01F03D018C059C600AB1C0694A
:101580009047FFF73DFEBDE81040FFF7B1BC00BF3C
:1015900000600240900800200000000000000000F1
:1015A00010B5FFF7D5FCFFF743FE094B0948196852
:1015B0000269090C01F03D010C049C600AB140690C
:1015C0009047FFF71DFEBDE81040FFF791BC00BF3C
:1015D00000600240900800200000000000000000B1
:1015E00010B5FFF7B5FCFFF723FE094B0948196852
:1015F0008268890901F03D018C019C600AB1C068D4
:101600009047FFF7FDFDBDE81040FFF771BC00BF3C
:101610000060024090080020000000000000000070
:1016200008B5FFF795FCFFF703FE084B084A196859
:1016300001F03D01996013680BB150689847FFF7BE
:10164000DFFDBDE80840FFF753BC00BF006002406B
:1016500090080020000000000000000000000000D2
:10166000064B1A6B002A05DD5A6B002A02DD0022A8
:101670005A63704772B6024ADA62FEE71009002028
:101680002021000800000000000000000000000011
:10169000064B1A6B002A01DD5A6B1AB172B6044A66
:1016A000DA62FEE701225A63704700BF100900208A
:1016B00028210008000000000000000000000000D9
:1016C00038B50446202383F311881948FFF7A0FC9E
:1016D000FFF7DEFF94F82030072B10D8DFE803F087
:1016E000150F0F1E0A040F0A656AFFF751FDAB685C
:1016F0000133AB6094E80C001A60226853604FF02D
:10170000FF3363622046FFF753FDFFF7A9FF084848
:10171000FFF74EFC002383F3118838BD636A002273
:101720001A604FF0FF3363622046FFF741FDECE79C
:10173000D80D0020000000000000000000000000A4
:10174000054B1A6B22B9596B002901DD5A637047AA
:1017500072B6024ADA62FEE7100900203021000862
:1017600008B5FFF7EDFFFFF74BFC084B1A689A42EC
:1017700004D0996992688968914203D3002383F366
:10178000118808BD72B6024ADA62FEE7100900202D
:1017900080210008000000000000000000000000A0
:1017A00008B5FFF7CDFFFFF72BFC084B1A689A42EC
:1017B00004D0996992688968914203D3002383F326
:1017C000118808BD72B6024ADA62FEE710090020ED
:1017D000E020000800000000000000000000000001
:1017E000054B1A6B0AB95A6B1AB172B6034ADA6220
:1017F000FEE701225A6370471009002038210008D3
:1018000010B52023044683F31188FFF709FCFFF786
:10181000E7FFFFF7BDFC1248124B02681968E31D91
:1018200023F00703891A8B429DBF9B18036014465F
:101830000024FFF785FFFFF7E3FB0B4B1A689A4282
:1018400004D0996992688968914204D3002383F394
:101850001188204610BD72B6044ADA62FEE700BF66
:10186000880800208408002010090020F0200008CB
:1018700008B50646202383F31188114DFFF7D0FBEE
:10188000FFF7AEFFAC69A06A666204F12806B042B9
:1018900006D00268A262FFF78BFCA06AB042F8D1C2
:1018A00094F821309B0704D1636922691A61226987
:1018B00053610F20FFF734FC72B6024BEB62FEE778
:1018C0001009002050210008000000000000000066
:1018D000FEE700BF00000000000000000000000064
:1018E000FEE700BF00000000000000000000000054
:1018F000704700BF00000000000000000000000072
:10190000704700BF00000000000000000000000061
:10191000002853D0F0B52C4E457A3268012303FAE3
:1019200005F7174246D1294CDFF8B0E044F83510EE
:1019300047EA020304EBC50413F0FF0F3360C4F859
:1019400004E004D0224C226B42F40012226313F410
:101950007F4F29D10268136823F01F0313601368B7
:1019600013F00103FBD1057A46683D24AC402125E4
:10197000346013605561F9B1817A4A09920001F12E
:10198000604402F1604202F5614204F561440120C5
:1019900001F01F0100FA01F1A02584F80053C2F8FC
:1019A000801111601846F0BD094A136B43F480039F
:1019B0001363CFE71846F0BD0846F0BD72B6054B7D
:1019C000054ADA62FEE700BF1C0F002090080020E5
:1019D000003802401009002090210008E80E002085
:1019E000F0B5464E354687B0FFF78AFBFFF7D0FBD0
:1019F000B26955F81C3F05924FF08042404904916E
:101A0000AB42506A5BD000F51C50B46A9A68103043
:101A1000041B944231D3944204D91B68A41A9A68D7
:101A2000A242FAD35A68029201AF019317605F6035
:101A300003949A684FF0FF31121B9A60716208207C
:101A4000FFF76EFBFFF7A4FB049B93B1FFF7A0FB2E
:101A5000F3692A49BB4215D0029A019B1360019B8E
:101A60000021AB425A60049103D09968039A0A445A
:101A70009A60B369586A07B0F0BDFFF729FAF369B5
:101A80009A68C8E7019ACA610023AA425560049384
:101A90002BD003989368896A03444FF08040936089
:101AA000406A421A9342E4D99B1A012B98BF022341
:101AB0001844FFF70DFAB369586A07B0F0BD42F257
:101AC00010710391D168B06201AF00F51C5011F0A4
:101AD000020100F1100001930293F761376208D10F
:101AE000022350631161D360A9E74FF08042D360B5
:101AF000BFE772B6034BF362FEE700BF1009002098
:101B0000C1160008E02100080000000000000000ED
:101B1000F8B5464D464EFFF7F3FA6869B469EB69CC
:101B200000284AD0002B7CDD844277D0A2688368ED
:101B30009A4211D990F820308260062B59D0072B99
:101B400027D04BB990E80C00012180F820101A60D2
:101B500002685360FFF72CFB364A134603E098688F
:101B6000A168884202D31B689342F8D1596861602A
:101B7000236006200C605C606262FFF7D1FA69693D
:101B80002A4B8C4203F10C0225D072B62A4BF36229
:101B9000FEE790E80A0019600768416A7B600B461F
:101BA00002E09F68974202D31B689942F9D15A68B4
:101BB0004260036010605860CEE743B9E26B6C612D
:101BC000012105F10C03E961AA61E363F8BD72B676
:101BD000194BF362FEE7E16B914203D072B6164BEC
:101BE000F362FEE7DB69012BF0D072B6124BF362B1
:101BF000FEE790E80A0019600768416A7B600B46BF
:101C000002E09F68974202D31B689942F9D15A6853
:101C10004260036010605860886887E70133EB61B9
:101C2000F8BD72B6044BF362FEE700BFE80E002079
:101C300010090020F40E0020D02100080000000050
:101C40002DE9F047344D2023D5F8189083F31188FF
:101C5000FFF7E6F9FFF7C4FDD9F83C3033B19A68D5
:101C6000914507D072B62D4BEB62FEE772B62B4B57
:101C7000EB62FEE72A4CE769002F48DD013FE76190
:101C8000002F3ED104F10C0A534503D072B6234B0A
:101C9000EB62FEE7A669C9F83C60FFF731FAD4F8B9
:101CA0000C80D04531D0D9F840705EB1FFF728FAEA
:101CB00033689E4203D09B689F4238BF1F46F66838
:101CC000002EF3D1D8F80030C9F808700122E36083
:101CD000E2614046D8F83C20C3F804A0C8F83CA014
:101CE000A261C4F81480FFF763FAFFF709FAFFF75F
:101CF0004FFAAA692B6892689B689A4201D2FFF753
:101D0000B7F9BDE8F047FFF74BBD6761F9E772B679
:101D1000024BEB62FEE700BF10090020B021000873
:101D2000E80E00200000000000000000000000009D
:101D300070B5202383F311882B4CFFF771F9FFF75F
:101D40004FFD2278531E012B04D972B6274B284A27
:101D5000DA62FEE7274B6360012A21D05989236BA1
:101D6000E26A080523F4F04322F4F04248BF43F44A
:101D70002053236348BF42F42052236AE26241F4B5
:101D8000417107220020186019605A601A6842F0F9
:101D900040021A6002232370BDE87040FFF7E0BCE8
:101DA000606A1549FFF7B4FD98B9A06A1349FFF7B7
:101DB000AFFD98B91248656AA36A416C226A2E6821
:101DC0001D6863680C3241F480514164B260AA60BE
:101DD000C4E772B6054B0B4ADA62FEE772B6034BF4
:101DE000084ADA62FEE700BFE80E00201009002072
:101DF0000022000820220008E1020008C1020008B9
:101E000000380240C021000800000000000000006F
:101E100010B5202383F31188124CFFF701F9FFF767
:101E2000DFFC23785A1E012A04D972B60E4B0F4AE2
:101E3000DA62FEE7022B05D001232370BDE81040D3
:101E4000FFF78EBC236A606A00221A605A60FEF7B0
:101E500097FBA06AFEF794FB054A536C23F480536A
:101E60005364E9E7E80E002010090020F021000883
:101E700000380240000000000000000000000000E8
:101E800008B5202383F31188FFF7CAF8FFF7A8FCF1
:101E9000124B1A78022A04D072B6114B114ADA6238
:101EA000FEE75B6819895A6801238B409BB2538314
:101EB000FFF746FCFFF7A4F8094B1A689A4204D0D2
:101EC000996992688968914203D3002383F311884A
:101ED00008BD72B6044ADA62FEE700BFE80E0020D1
:101EE00010090020102200088021000800000000D6
:101EF00008B5202383F31188FFF792F8FFF770FCF1
:101F0000124B1A78022A04D072B6114B114ADA62C7
:101F1000FEE75B6819895A6801238B409BB21383E3
:101F2000FFF70EFCFFF76CF8094B1A689A4204D0D1
:101F3000996992688968914203D3002383F31188D9
:101F400008BD72B6044ADA62FEE700BFE80E002060
:101F50001009002070210008802100080000000006
:101F60006368546864526573756D654900000000CC
:101F700073706953656E640000000000000000008B
:101F8000646D6153747265616D52656C65617365F2
:101F90000000000000000000000000000000000041
:101FA0006368537973556E6C6F636B0000000000BB
:101FB000106002400860024000000B0028600240F0
:101FC0000860024006010C004060024008600240C8
:101FD00010020D00586002400860024016030E0017
:101FE000706002400C60024000040F0088600240F4
:101FF0000C60024006051000A06002400C60024028
:1020000010061100B86002400C60024016072F0055
:10201000106402400864024000083800286402404E
:102020000864024006093900406402400864024026
:10203000100A3A005864024008640240160B3B0044
:10204000706402400C640240000C3C008864024052
:102050000C640240060D4400A06402400C6402407F
:10206000100E4500B86402400C640240160F460092
:10207000444D41206661696C757265005356233387
:1020800000000000737461636B206F766572666C8C
:102090006F77000069646C650000000000000000BC
:1020A00063685654446F5469636B49000000000034
:1020B0006D61696E00160318040460080C10141892
:1020C0001C20212200000000000000000000000091
:1020D000636854686453757370656E6453000000E0
:1020E0006368537973556E6C6F636B00000000007A
:1020F0006368537973556E6C6F636B00000000006A
:102100005356233131000000535623313000000074
:1021100053562339000000005356233800000000B6
:1021200053562337000000005356233600000000AA
:10213000535623350000000053562334000000009E
:102140006368536368526561647949000000000068
:1021500063685468644578697453000000000000A7
:102160007374536574416C61726D0000000000006F
:10217000737069556E73656C6563740000000000D0
:102180006368537973556E6C6F636B0000000000D9
:10219000646D6153747265616D416C6C6F636174E1
:1021A00065000000000000000000000000000000CA
:1021B00063684D7478556E6C6F636B0000000000AF
:1021C0007370695F6C6C645F73746172740000009B
:1021D00063684D74784C6F636B530000000000001F
:1021E00073745374617274416C61726D000000000D
:1021F00073706953746F70000000000000000000ED
:102200007370695374617274000000000000000074
:1022100073706953656C6563740000000000000012
:0C2220000000000000000240040030003C
:10223000343434343434343434343434343434345E
:10224000343434343434343434343434343434344E
:10225000343434343434343434343434343434343E
:10226000343434343434343434343434343434342E
:10227000343434343434343434343434343434341E
:04228000343434348A
:04000005080001C12D
:00000001FF
