:020000040800F2
:1000000000040020C1010008F1060008F106000804
:10001000F1060008F1060008F1060008F1060008E4
:10002000F1060008F1060008F1060008F1020008D8
:10003000F1060008F1060008F1060008F1060008C4
:10004000F1060008F1060008F1060008F1060008B4
:10005000F1060008F1060008F1060008F1060008A4
:10006000F1060008F1060008F1060008F106000894
:10007000F1060008F1060008F1060008F106000884
:10008000F1060008F1060008F1060008F106000874
:10009000F1060008F1060008F1060008F106000864
:1000A000F1060008F1060008F1060008F106000854
:1000B00061050008F1060008F1060008F1060008D5
:1000C000F1060008F1060008F1060008F106000834
:1000D000F1060008F1060008F1060008F106000824
:1000E000F1060008F1060008F1060008F106000814
:1000F000F1060008F1060008F1060008F106000804
:10010000F1060008F1060008F1060008F1060008F3
:10011000F1060008F1060008F1060008F1060008E3
:10012000F1060008F1060008F1060008F1060008D3
:10013000F1060008F1060008F1060008F1060008C3
:10014000F1060008F1060008F1060008F1060008B3
:10015000F1060008F1060008F1060008F1060008A3
:10016000F1060008F1060008F1060008F106000893
:10017000F1060008F1060008F1060008F106000883
:10018000F1060008F1060008F1060008F106000873
:10019000F1060008F1060008F1060008F106000863
:1001A000F1060008F1060008F1060008F106000853
:1001B000F1060008F1060008F1060008F106000843
:1001C00072B6214880F30988022080F31488BFF3B7
:1001D0006F8F00F0E5FF00F05BFB1C481C491D4AD7
:1001E00091423CBF41F8040BFAE71B49164A914281
:1001F0003CBF41F8040BFAE71849194A194B9A42D7
:100200003EBF51F8040B42F8040BF8E700201649F2
:10021000164A91423CBF41F8040BFAE700F0B8FFE0
:10022000134C144DAC4203DA54F8041B8847F9E729
:1002300000F006FC104C114DAC4203DA54F8041BDC
:100240008847F9E700F09CBF000800205555555538
:10025000000000200004002000040020A01200087C
:10026000000800200008002000080020080E0020E0
:10027000C0010008C0010008C0010008C00100085A
:100280002DE9F04FC1F80CD0D0F80CD0BDE8F08FBC
:1002900000F0B6FB00F064FB002383F311882846CE
:1002A000A047002000F03CFF00F062FB00F0B8FB2C
:1002B00000F066FB00F0A4FB00F052FB00DFFEE75D
:1002C000FEE700BF0000000000000000000000008A
:1002D0004FF08043DA68920701D55863704772B6D1
:1002E000014B024ADA62FEE708080020901200087B
:1002F000EFF30983203383F30988002383F3118804
:10030000704700BF00000000000000000000000077
:100310000E4B42685B6870B48B60D0E90445866818
:10032000C1689B1BE41845F1000501319342C1608F
:100330008360C0E9044505D80268934238BF036072
:1003400070BC7047436070BC704700BF001000E095
:100350000F4B10495A688368F0B4D1F8A074C6688E
:100360004168D0E90445D31ADB1BE41845F10005C8
:1003700001368B42C6608360C0E9044505D8026837
:10038000934238BF0360F0BC70474360F0BC7047D5
:10039000001000E00808002000000000000000003D
:1003A000014B5B6883607047001000E000000000B4
:1003B0000C4A4FF08041D36B10B44C6A916959607C
:1003C0001C60416A996090F820101973103302F58F
:1003D00088618B4228BF02F14003D3635DF8044B70
:1003E000704700BF08080020000000000000000067
:1003F000054B1A6B1AB95A6B002A00DD704772B6AA
:10040000024ADA62FEE700BF08080020E011000897
:10041000054B1A6B002A03DB5A6B002A00DD70477C
:1004200072B6024ADA62FEE708080020E811000806
:1004300010B50446FFF7ECFFCCB194F820308BB137
:100440000F2B0FD00022A1680B4B84F820201B68D3
:100450009A688A42FBD25A68626023602046146020
:100460005C6010BD72B6044B044ADA62FEE772B6F5
:10047000014B024ADA62FEE7080800205012000829
:10048000064B1A6B002A05DD5A6B002A02DD00229A
:100490005A63704772B6024ADA62FEE70808002023
:1004A000F011000800000000000000000000000043
:1004B000064B1A6B002A01DD5A6B1AB172B6044A58
:1004C000DA62FEE701225A63704700BF0808002085
:1004D000F81100080000000000000000000000000B
:1004E00038B50446202383F311881948FFF758FFD5
:1004F000FFF7DEFF94F82030072B10D8DFE803F079
:10050000150F0F1E0A040F0A656AFFF781FFAB681B
:100510000133AB6094E80C001A60226853604FF01E
:10052000FF3363622046FFF783FFFFF7A9FF084808
:10053000FFF70EFF002383F3118838BD636A0022A2
:100540001A604FF0FF3363622046FFF771FFECE75C
:10055000D00C00200000000000000000000000009F
:100560002DE9F843574CD4F8A8340133C4F8A83423
:10057000202282F31188236B002B01DB676B1FB1F4
:1005800072B6514BE362FEE70133236387F31188B0
:100590004FF0804633699B070DD4202181F31188E9
:1005A000236B484A002B02DD506B002864D072B6E2
:1005B000464BE362FEE7376182F3118804F59960E8
:1005C000FFF7EEFEFFF774FFFFF722FFFFF720FFB4
:1005D000E569726AA36AA968D01A884238BF04F133
:1005E0001C0628D3B846374604F11C062A68D5F8FD
:1005F0000C900B44B242A3625660E261C5F80C80D5
:1006000008BFC7F80C80FFF73BFF3148FFF7A0FE9B
:1006100088F311882869C847202383F311882C4860
:10062000FFF7BEFEFFF744FFE5697A6AA36AA9688F
:10063000D01A8142DAD9B54215D00B449B1A012B4E
:1006400098BF02239D182846FFF742FE4FF08043D3
:10065000A16A5A6A1B486B1A521A9A4203D972B697
:100660001C4BC362FEE7FFF70BFF1948FFF770FE54
:10067000002383F3118890E7013B136380F3118813
:1006800081F31188144B5B6813F4006303D183F387
:100690001188BDE8F883EFF309834FF0807143F8C8
:1006A000041CA3F1200181F309881168926989680B
:1006B000926891428CBF094A094A43F8082CBDE868
:1006C000F88300BF08080020001200080812000884
:1006D000D00C00204012000800ED00E0A902000844
:1006E000BC02000800000000000000000000000044
:1006F000FEE700BF00000000000000000000000056
:1007000070B5164C0646FFF773FE2368A5691A6894
:1007100085F8206001215460284683F8201022606B
:10072000A361FFF745FED4F8AC34A169013305F1AC
:1007300048004831C4F8AC34FFF7EAFDEFF3098311
:10074000EA69243B9A4205D8A0692946BDE8704071
:10075000FFF796BD72B6024BE362FEE70808002081
:10076000101200080000000000000000000000005F
:10077000F0B5444D2E4687B0FFF73AFEFFF748FE2E
:10078000AA6956F81C3F05924FF080423E490491F9
:10079000B342516A5AD0AC6A9A6801F57A70041B68
:1007A000944231D3944204D91B68A41A9A68A24295
:1007B000FAD35A68029201AF019317605F60039405
:1007C0009A684FF0FF31121B9A6069620820FFF7A8
:1007D00097FFFFF71DFE049B93B1FFF719FEEB692E
:1007E0002849BB4215D0029A019B1360019B00214E
:1007F000B3425A60049103D09968039A0A449A60FC
:10080000AB69586A07B0F0BDFFF762FDEB699A6803
:10081000C8E7019ACA610023B2425660049329D006
:1008200003989368896A03444FF080409360406A5C
:10083000421A9342E4D99B1A012B98BF0223184411
:10084000FFF746FDAB69586A07B0F0BD4FF47A7008
:100850000390D068A96201AF10F0020001930293E7
:1008600001F57A71EF612F6208D1022351631061A3
:10087000D360ABE74FF08042D360C1E772B6034B61
:10088000EB62FEE708080020E1040008701200088F
:100890002C492D4B4FF080504FF4404208641A60B1
:1008A0000B6843F001030B600A68264B9007FBD5E9
:1008B0009A6822F003029A609A689A6019468B68D7
:1008C000204A13F00C03FAD1116801F0F90111600C
:1008D0009360136843F4803313601168194B8903E4
:1008E000FBD55A6F42F001025A675A6F15499007BB
:1008F000FBD5164B4B600B68134A43F080730B60BB
:1009000053685904FCD50F490A680E4B9201FBD578
:100910000F4A1049996040F2057111609A6842F0DF
:1009200002029A601A469368064903F00C03082BEA
:10093000F9D14B6C43F480434B644B6E43F48043DA
:100940004B66704700380240007000400C5440076E
:10095000003C0240009488380000000000000000C5
:100960000148FFF7F5BC00BFB80C002000000000F4
:100970000148FFF715BD00BFB80C002000000000C3
:1009800070B51B4D2A68AC691368A1682B600126FD
:1009900000205D6082F82060AA6184F8200000E0F9
:1009A0001B689A688A42FBD85A68626023602046B6
:1009B00014605C60FFF7FCFCD5F8AC34A9690C4E00
:1009C0000133483104F14800C5F8AC34FFF7A0FC0E
:1009D000EFF30983E269243B9A4205D8B0692146C6
:1009E000BDE87040FFF74CBC72B6024BF362FEE705
:1009F000080800201012000800000000000000009D
:100A0000054B1A6B22B9596B002901DD5A637047F7
:100A100072B6024ADA62FEE70808002020120008D7
:100A2000054B1A6B0AB95A6B1AB172B6034ADA62ED
:100A3000FEE701225A6370470808002028120008C8
:100A4000CC4BCD4C1A694FF0FF3100222DE9804884
:100A500019611A61586959615A61186A60F08050C9
:100A600018621A62586A59625A62196C41F08051D0
:100A70001964216841F480712160196F01F440719B
:100A8000B1F5007F87B003D04FF4803119671A6742
:100A9000B94EDFF8E0927568B84ADFF81CB3B84F7A
:100AA000DFF818A3DFF818E3DFF81883DFF818C3BE
:100AB000B44CB548B549B64B25F400757560D9F806
:100AC00030506FEA55256FEA4525C9F83050D9F8FE
:100AD00050606FEA56266FEA46260025C9F8506036
:100AE0004FF0FF3655609660C2F80CB04FF6FF6BC2
:100AF000C2F814B01762A7F12A67DFF8D0B2C2F8C3
:100B000024B0A7F56627A7F522774FF4407B17603E
:100B1000CAF804B09F4FCAF808604FF6FE7BCAF8C7
:100B20000C70CAF814B0DFF8A8B29B4A4FF4A007C3
:100B3000CAF82070CAF82420CAF800B0ABF1CB5B29
:100B40006FF49A6AABF56C2B01274FF6FF72D34412
:100B5000DFF880A2CEF80450CEF80860CEF80C7012
:100B6000CEF81420CEF820B0CEF824A0DFF868B27A
:100B7000DFF868A2CEF800B04FF0200E4FF4406BC3
:100B8000C8F80450C8F80860C8F80CA0C8F81420C9
:100B9000AAF5A85AC8F820B04FF4885BC8F82450CA
:100BA000C8F800E0DFF83882CCF80450CCF80860D0
:100BB000CCF80CA0CCF81420DFF828A2CCF82050F8
:100BC000CCF82450CCF800B06560DFF81CB2A66009
:100BD000DFF818C2C4F80C806261DFF81482256265
:100BE000656225604FF0553445608660C0F80CA002
:100BF00042610562C0F824B0C0F800C04D608E604C
:100C0000C1F80C804A610D624D620D605D609E60AE
:100C1000DC605A611D625D621D60D9F84030DFF80A
:100C2000D4A15E4C5E4ADFF8D0815E48DFF8CCC1CB
:100C30005D493B43C9F84030DAF8089064604FF0F2
:100C4000804349EA0709CAF8089042F2CF0B4FF0F7
:100C500080594FF0800AC3F828B0DE629D615D6361
:100C6000DD605D605F611F6088F81CA3C8F880913B
:100C7000C8F800909560D2F80C80A5604FF6FF038D
:100C800008EA03031843D060DCF80C30246143F019
:100C90008073CCF80C300B68646104F11C0C3B438E
:100CA0004FF000084FF000094FF0100A68460B6043
:100CB000666282F81FA0C4F81CC082F822E0C4F863
:100CC00020C02460A562C4F8A05400960195029546
:100CD0000395CDE90489FFF763FB6846FFF738FB0E
:100CE000029A324BC4F8A02404F5986B04F59B6279
:100CF0002F483049DFF808A1DFF808C1DFF808E124
:100D0000C3F800E0CBE90089C2E9008904F1400B97
:100D1000022220F0070021F00701C4F83CB084F85B
:100D2000602403F1100B4022CAF80000CCF8001038
:100D3000A263C4F84824C4F88024C4F8A854C4F8B2
:100D4000AC54C4F8B064C4F8B454C4F8B854C4F88B
:100D5000BC54C4F8C864C4F8CC54C4F8D054C4F823
:100D6000D45484F86274C4F8504484F86154C4F8CC
:100D70007C544BE00038024000700040000002400C
:100D8000B00B50B50014024000180240001C024095
:100D9000002002400040400844050CCC0808002018
:100DA00000ED00E00003FA05001000E0E80D00206F
:100DB0000F0E002000000220000108200004024065
:100DC00000080240000C02400010024000AA0A0085
:100DD000811A2AA2CCCC0C00A8AAAA0645555555C2
:100DE000555515555545040000B0B00B00009169EC
:100DF00050555555002004E000E100E0F0ED00E022
:100E0000E00D002000080020B1100008C4F878545C
:100E1000C4F858549D60DD609D61C3F810B0C3F8FC
:100E200014B06369C4F8543404F5886AC3F810A098
:100E300004F5936204F26C4304F58D6E04F594613D
:100E4000C2E90089C4F86C34C4F8703404F59160C8
:100E5000C4F88864C4F88C54C4F89054C4F894540A
:100E6000C4F868E4C4F85C14C4F814A0FFF798FA56
:100E7000236B834AC4F818A084F86074C4F85C2417
:100E80000BB9636B1BB172B67E4BE362FEE783F373
:100E9000118862B6A3697C4A9A6104F59C694B4645
:100EA00004F5A868FF2203F8012B4345FBD3774BD9
:100EB000552103F1980203F8011B9342744DFAD3B4
:100EC000202383F31188FFF753FDFFF7A9FDFFF7F8
:100ED0009FFA6B696F487049C5F8B4050026012771
:100EE00005F2B45E0222C5F8ECE4C5F8D41585F825
:100EF000002505F20C510022C5F8F4344FF0FF3CF8
:100F000005F5A76EC5F8F054C5F8B86585F8016514
:100F1000C5F81C65C5F81865C5F8F864C5F8E87427
:100F2000C5F8207585F8027505F5A16AC3F810901B
:100F30000023CEE9002305F5A560C5F8FC84C5F8BB
:100F400028C5C5F80C15C5F81015C5F82C65C5F8E9
:100F50003065C5F83465C5F808A5C5F81490FFF7E5
:100F60001FFAFFF745FAA869D5F8E8248368C5F8A1
:100F700004659A4205F59C6871D9FFF759FA85F81E
:100F800000750646C5F81880FFF712FAD5F8AC349C
:100F900006F14800013305F5A561C5F8AC34FFF74B
:100FA000B7F9EFF30983F269243B9A425FD84046D0
:100FB0003146FFF765F9FFF723FDFFF7D1FC226803
:100FC000334BA24204D099699268896891424AD30E
:100FD000002383F31188314BDFF8CC802C4FC4F809
:100FE000F8344FF40056B1462025A8F8189085F340
:100FF0001188FFF7BDFCFFF713FDFFF7B9FBFFF703
:10100000FFFCFFF7ADFC23682149A3424FF000002D
:1010100004D0BA699B6892689A422CD380F31188F5
:10102000A8F81A6085F31188FFF7A2FCFFF7F8FC17
:10103000FFF79EFBFFF7E4FCFFF792FC23681449DF
:10104000A34204D0BA699B6892689A4203D30023F2
:1010500083F31188C9E772B6114BCB62FEE74046B5
:10106000FFF7E6F9A7E772B60D4ADA62FEE772B655
:101070000C4BEB62FEE772B6094BCB62FEE700BF9A
:101080000004002030120008B0110008480D0020B4
:1010900008080020C1020008910200083812000868
:1010A0008012000810120008000802400000000032
:1010B00010B52023044683F31188FFF759FCFFF78E
:1010C000AFFCFFF7A5F91248124B02681968E31D3F
:1010D00023F00703891A8B429DBF9B1803601446B7
:1010E0000024FFF78DFCFFF73BFC0B4B1A689A427C
:1010F00004D0996992688968914204D3002383F3EC
:101100001188204610BD72B6044ADA62FEE700BFBD
:10111000E00D00200008002008080020D011000881
:1011200008B50646202383F31188114DFFF720FCF4
:10113000FFF776FCAC69A06A666204F12806B0424B
:1011400006D00268A262FFF773F9A06AB042F8D134
:1011500094F821309B0704D1636922691A612269DE
:1011600053610F20FFF7CCFA72B6024BEB62FEE739
:1011700008080020601200080000000000000000C5
:10118000FEE700BF000000000000000000000000BB
:10119000704700BF000000000000000000000000D9
:1011A000704700BF000000000000000000000000C9
:1011B0006D61696E00160318040460080C101418A1
:1011C0001C202122000000000000000000000000A0
:1011D0006368537973556E6C6F636B000000000099
:1011E00053562331310000005356233130000000A4
:1011F00053562337000000005356233600000000EA
:1012000053562338000000005356233900000000D5
:10121000737461636B206F766572666C6F77000024
:1012200053562335000000005356233400000000BD
:10123000535623330000000069646C650000000011
:1012400063685654446F5469636B490000000000A2
:101250006368536368526561647949000000000067
:1012600063685468644578697453000000000000A6
:1012700073745374617274416C61726D000000008C
:101280006368537973556E6C6F636B0000000000E8
:0B1290007374536574416C61726D0053
:04000005080001C12D
:00000001FF
